:03000000020006F5
:10005F0075083F750906750A5B750B4F750C66754C
:10006F000D6D750E7D750F0775107F75116F7512FC
:10007F007775137C75143975155E7516797517714B
:03008F0002000369
:030003000200A454
:10009200AE82AF838E048F051EBEFF011FEC4D7032
:1000A200F3227E007F00C287EE2408F9E7F4F58090
:1000B200B2870EBE00010FC3EE9411EF940040040C
:1000C2007E007F00909C40C007C006120092D006BE
:0400D200D00780D4FF
:06003500E478FFF6D8FD9F
:100013007900E94400601B7A009000DA780175A04A
:1000230000E493F2A308B8000205A0D9F4DAF2754C
:02003300A0FF2C
:10003B007800E84400600A790175A000E4F309D860
:10004B00FC7800E84400600C7900900001E4F0A318
:04005B00D8FCD9FAFA
:0D0006007581181200D6E582600302000328
:0400D600758200220D
:00000001FF
